:040000008A110D282C
:10000800FE00030EF7000408F8000A08F9008A1534
:100018005B2D8A11E02F98308312AC0083162308D9
:100028008312AE00831622088312AD0083162108BE
:100038008312B000831620088312AF0083162508A8
:100048008312B200831624088312B1004D30242392
:100058008A114D303C2FE300F0208A11620A840097
:100068008008031D08006208E00063083B28E100DF
:10007800600884000008013A03197128033A03193B
:100088007128013A03197128073A03197128013AAE
:1000980003195228033A03196A2871286008033E95
:1000A80084008001800A6008043E840061080D3ED7
:1000B80080006008063E840080016008053E8400D8
:1000C8000F3080006008A6006108202960088400BD
:1000D80080016008CD0061083D290800E500F02096
:1000E8008A11620A84008008031D8F286208033E73
:1000F80084008008031D8F28620884000008063ADF
:10010800031D8A286208840080018C286208840004
:10011800800A62080F296208033E840080080319D8
:1001280008006208053E84000008E3006208043EF7
:100138008400000884000008E400630864020318CF
:1001480008006208043E840000088400800A6208EF
:10015800E0006508F728E500F0208A11620A8400AB
:100168008008031DD0286208033E84008008031D10
:10017800D0286208840080080319C6286208840011
:10018800000BCB286208840006308000CE28620865
:100198008400800362080F296208033E84008008F7
:1001A800031908006208043E84000008840000085F
:1001B800E3006208063E84000008E4006308640265
:1001C800031808006208043E8400000884008003C5
:1001D8006208E0006508F728A000123E8400FF309E
:1001E800831380000800E100600884000008840090
:1001F800063004020318080007308A000310040DB3
:10020800F23E820008006008CD0061083D296008C0
:10021800A60061082029A6001D228A11A6300C23F9
:100228008A1140308E218A11831226088400831394
:100238000008A3001F301A2FA7001D228A112608C4
:10024800840083130008A3001F301A278A11403046
:100258008E218A118312A80127080D3E84002808E0
:1002680083130002031C0800B0300C238A11A80A6B
:100278003029DF004D0884008008031D080066301F
:10028800AC005F0884000008AD00840A0008AE00D6
:100298004E3024238A1100308E218A114E30CB2112
:1002A8008A115230AC005F08043E84000008AD009B
:1002B800840A0008AE005F08073E84000008AF000B
:1002C800B0015F08093E84000008B100B2015F0870
:1002D8000A3E84000008143E84000008B300B401FC
:1002E8005F080B3E84000008143E84000008B50037
:1002F800B6015F080C3E84000008143E8400000824
:10030800B7004E30B80124238A1140308E218A115B
:100318004E30CB29A1000F3083168705831287053D
:1003280021088038F039870406138710F930A000B7
:100338000000A00B9C29A029000083120313871535
:10034800F930A0000000A00BA629AA2900008312FA
:10035800031387110F308705210EF0398704F93010
:10036800A0000000A00BB529B929000083120313CF
:100378008715F930A0000000A00BBF29C329000091
:10038800831203138711F030831687040800831241
:10039800A200220884008313800803190800C622DB
:1003A8008A110038031DD32922088400831300080A
:1003B800E1218A118312A20ACD29A1000F308316E8
:1003C8008705831287052108F039870487140613E7
:1003D800F930A0000000A00BEE29F22900008312DA
:1003E80003138715F930A0000000A00BF829FC2999
:1003F80000008312031387110F308705210EF0398F
:100408008704F930A0000000A00B072A0B2A00007F
:10041800831203138715F930A0000000A00B112ADE
:10042800152A0000831203138711F03083168704FE
:100438000800C6228A110038031D1D2A01308822AF
:100448008A11C6228A11003803190800252A0F309C
:100458008312870583168705061387108711831271
:100468000613871087112730A300F530A200A20BCE
:100478003B2AA30B3B2A303088228A110D30831285
:10048800A300FB30A200A20B472AA30B472A4C2A41
:10049800303088228A11F9308312A2000000A20BA2
:1004A800522A562A0000323088228A11C6228A111E
:1004B8000038031D5A2AC6228A110038031D5F2AF4
:1004C800283088228A11C6228A110038031D672A1B
:1004D800083088228A11C6228A110038031D6F2A23
:1004E8000F3088228A111D228A11C6228A110038EB
:1004F800031D792A063088228A11C6228A110038FB
:10050800031D812A00308E2983120313A1000F30A6
:1005180083168705831287052108F0398704061397
:100528008711F930A0000000A00B972A9B2A000031
:10053800831203138715F930A0000000A00BA12A2D
:10054800A52A00008312031387110F308705210E97
:10055800F0398704F930A0000000A00BB02AB42AB3
:100568000000831203138715F930A0000000A00BC8
:10057800BA2ABE2A0000831203138711F0308316AB
:1005880087040800831206178710F930A0000000BE
:10059800A00BCB2ACF2A0000831203138715F9304A
:1005A800A0000000A00BD52AD92A0000831203134B
:1005B800871FF52A8711F930A0000000A00BE12A57
:1005C800E52A0000831203138715F930A000000004
:1005D800A00BEB2AEF2A00008312031387110613DE
:1005E80001348711F930A0000000A00BF82AFC2A7A
:1005F8000000831203138715F930A0000000A00B38
:10060800022B062B000083120313871106130034F4
:10061800A200220884008A1500218A1100380319D3
:100628000800C6228A110038031D152B22088400F1
:100638008A1500218A11E1218A118312A20A0D2B41
:10064800CA002D30C200831203132C08AC0A8400A0
:100658008A1500218A11C900C9080319A02E490862
:10066800253A03193E2B4A08840049088313800061
:10067800CA0A272BC401C501CB01CC014B2BCB15D2
:100688004A2B4B144A2BCC154A2B4B15AC0A2C0879
:1006980084008A1500218A11203A0319452B033A50
:1006A8000319472B0E3A0319432B1D3A0319492BFB
:1006B8005D2BCB1D602B4B112C0884008A15002163
:1006C8008A11CF268A11031C932BC401C5010A3055
:1006D800A000A1014508A3004408A20001272108A1
:1006E800C5002008C4002C0884008A1500218A113E
:1006F800D03EB900FF3003180030BA003908C407EB
:100708000318C50A3A08C507AC0A2C0884008A15DC
:1007180000218A11CF268A11031CA62B6B2B2C08CB
:1007280084008A1500218A112A3A031DA62B420843
:10073800840083130008C400840A0008C500C20AA4
:10074800C20AAC0A2C0884008A1500218A112E3AA4
:10075800031DDA2B4C17AC0A2C0884008A150021DB
:100768008A112A3A031DC12B42088400831300080A
:10077800C300C20AC20AAC0A532CC3012C08840065
:100788008A1500218A11CF268A11031C532C0A309E
:10079800A00043082E27B9002C0884008A150021E0
:1007A8008A113907D03EC300AC0AC22BC301532CAF
:1007B8004B17652CCB16CB17652C43080319F62B62
:1007C8004308B900BA01B91BBA0348083A02031D25
:1007D800EF2B470839020318F62B4308C700C80156
:1007E800C71BC80345084802031DFC2B44084702E1
:1007F8000318052C4708C4024808031CC503C50292
:10080800072CC401C501CB1D102C252C4A088400D7
:10081800203083138000CA0AFF30C407031CC503B5
:10082800440A0319450A0319252C0A2C4608840092
:1008380083130008B9004A08840039088000C60AF2
:10084800CA0A0130C7020030031CC803C802470A9D
:100858000319480A031D1A2CCB19392C272B4A08CF
:100868008400203083138000CA0AFF30C407031CA9
:10087800C503440A0319450A0319272B332C4208D8
:10088800840083130008C900C20AC20A4930C6009E
:10089800C701C70AC801E12BC030CB04652C2C085E
:1008A800AC0A84008A1500218A11C90084007930B5
:1008B800040203184A2C08308A000310040D003E75
:1008C80082004B08C039031D7D2C42088400831325
:1008D8000008C600840A0008C700C20AC20AC71F67
:1008E800872C0330CB04C609C709C60A0319C70AEF
:1008F800872C4208840083130008C600840A000875
:10090800C700C20AC20AC308031DDE2C47084604F2
:10091800031DDE2CC30ADE2CC901C90A4908053AA1
:100928000319EC2C0310490D0D3E84008A15002193
:100938008A11B9008A1500218A11BA004702031DDD
:10094800A72C39084602031CEC2C912CC901C90AB2
:100958004908043A0319EC2C0310490D173E84008A
:100968008A1500218A11B9008A1500218A11BA0056
:100978004702031DC12C39084602031CEC2CAB2C82
:10098800C901C90A4908063A0319EC2C0310490D94
:10099800013E84008A1500218A11B9008A150021B8
:1009A8008A11BA004702031DDB2C39084602031CD2
:1009B800EC2CC52C4B08C0390319902C403A03196C
:1009C800C42CC03A0319AA2C403A0319902CEC2CD9
:1009D8004908803AB9004308803AB9024308031825
:1009E800F72CC900002D803AB9004908803AB902AD
:1009F8000318002D4908C3004508440403190C2DA9
:100A08004B08033903190C2DFF30C407031CC50319
:100A18004C1F302D4308B900BA01B91BBA033A0874
:100A2800803ABB004508803A3B02031D1D2D44084F
:100A3800390203182C2D831203134308B900BA0195
:100A4800B91BBA03C4023A08031CC503C502302DFA
:100A580083120313C401C501C4304B05B900083023
:100A68004C05BA00083A403003193906031D422DD7
:100A7800450844040319642DFF305C2DC0304B0534
:100A8800B90008304C05BA00083A80300319390615
:100A9800031D642D4508803AFF0080307F02031D46
:100AA800572D03304402031C602DFE3083120313BC
:100AB800C407031CC503642D83120313C401C501B5
:100AC8004908B900BA01B91BBA033A08803ABB0011
:100AD8004508803A3B02031D732D44083902031868
:100AE800822D831203134908B900BA01B91BBA034E
:100AF800C4023A08031CC503C502862D83120313DA
:100B0800C401C5014B1DC42D4B0803390319912D90
:100B18004A0884002D308313B32D4B1C972D4A08A7
:100B2800840020308F2DC0304B05B90008304C05AB
:100B3800BA00083A803003193906031DB52D4A0852
:100B48008400303083138000CA0ACB1AAD2D783068
:100B5800AE2D5830BC00BD014A0884003C08800016
:100B6800CA0A4508440403197F2E4A088400303015
:100B780083138000FF30CA0AC407031CC503B52DC0
:100B880045084404031DCB19D72D4A08840020309A
:100B980083138000FF30CA0AC407031CC503450835
:100BA8004404031DC92D4B0803390319DF2D4A08D6
:100BB80084002D30E42D4B1CE72D4A08840020309A
:100BC80083138000CA0AC0304B05B90008304C05B1
:100BD800BA00083A403003193906031DF72D4A08B0
:100BE800840030307C2EC0304B05B90008304C05ED
:100BF800BA00083A803003193906031D7F2E4A08C7
:100C08008400303083138000CA0ACB1A0D2E783046
:100C18000E2E5830BE00BF014A0884003E087D2EC3
:100C28000A30A700A8010310430D0D3E84008A1561
:100C380000218A11A0008A1500218A11A100470805
:100C4800A3004608A200A5268A112108AA002008A8
:100C5800A900DD268A112708682E4708A300460840
:100C6800A2000310430D173E84008A1500218A1143
:100C7800A0008A1500218A11A100A5268A11200842
:100C8800C0000F30C005CB1A4B2E87304C2E763063
:100C9800C1004008410784008A1500218A11692E85
:100CA8000310430D013E84008A1500218A11A0001B
:100CB8008A1500218A11A1004708A3004608A2004E
:100CC800A5268A1120080739303EC900792E4B081D
:100CD800C0390319142E403A0319542EC03A031987
:100CE800312E403A0319142E792E4A0884004908F7
:100CF80083138000CA0AC303430F6B2ECB1D272B17
:100D08004508803AFF0080307F02031D8D2E013098
:100D18004402031C272B831203134A088400203043
:100D280083138000FF30CA0AC407031CC5034508A3
:100D380044040319272B8F2E4A088400831380014B
:100D48000800A401A501210820040319CA2EA60140
:100D5800A60AA11BB32E0310A00DA10DAC2E0310E3
:100D6800A40DA50D21082302031DBC2E2008220274
:100D7800031CC62E2008A2022108031CA303A302F9
:100D880024140310A10CA00CA60BB32E2508A10057
:100D98002408A0000800A1003A30A001210203188D
:100DA800DB2E30302102031CDB2EA001A00A200C10
:100DB8000800280827040319FC2EAB01AB0AA81B5E
:100DC800E92E0310A70DA80DE22E28082A02031DFC
:100DD800EF2E27082902031CF82E2708A902280845
:100DE800031CAA03AA020310A80CA70CAB0BE92E3C
:100DF8002A08A8002908A7000800A401A501201CAA
:100E08000B2F2208A4070318A50A2308A507031017
:100E1800A20DA30D0310A10CA00C21082004031D92
:100E2800032F2508A1002408A0000800A500A4019C
:100E3800282FA50A250884008A1500218A11003860
:100E4800031D1D2FA50AA40A24082306031D1E2F0F
:100E580025080C2BA200A10120082218A1070310C5
:100E6800A00D0310A20CA208031D302F21080800B2
:100E7800A000200884008008031908008316981C25
:100E8800422F83122008840000089900A00A3D2FF1
:100E98008A1565228A118A1518228A118A112B222D
:100EA8008A110F30AD000530B4002E080319652FE4
:100EB800B4308312E200A0308A11AF208A11831661
:100EC800AE012F080319712FB4308312E200A0304D
:100ED8008A1172208A118316AF01300803197F2FF7
:100EE800B4308312E200A0308A112F208A11851DA8
:100EF8007B2F8316B00126080319592F2308831264
:100F0800A900831622088312A8008A1577268A1159
:100F18002808AE002908AF002A08B000D730AB0077
:100F2800A330AC003B30AD008A1587268A112B0808
:100F3800BD002C08BE002D08BF00831621088312AF
:100F4800A900831620088312A8008A1577268A111B
:100F58002808AE002908AF002A08B000B830AB0056
:100F68007E30AC003F30AD008A1587268A112B08E9
:100F7800BA002C08BB002D08BC008A1502278A116C
:100F88003A08C6003B08C7003C08C8008A15B721C4
:100F98008A1147088316A100831246088316A00009
:100FA8008A110F208A11B430CD00A0308A113D215A
:100FB8008A118316A601592FFB01FC01FD01831339
:100FC800663084006F308A155D228A11A030840053
:100FD800BB308A155D2283018A114C2F8A1107299B
:100FE8008A1106298A1106298A1106298A110629D1
:040FF8008A110B2926
:101000008A11A02E8A114A2C8A114A2C8A114A2C44
:101010008A114A2C8A114A2C8A114A2C8A114A2C8C
:101020008A114A2C8A114A2C8A114A2C8A114A2C7C
:101030008A114A2C8A114A2C8A114A2C8A114A2C6C
:101040008A114A2C8A114A2C8A114A2C8A114A2C5C
:101050008A114A2C8A114A2C8A114A2C8A114A2C4C
:101060008A114A2C8A114A2C8A114A2C8A114A2C3C
:101070008A114A2C8A114A2C8A114A2C8A114A2C2C
:101080008A114A2C8A114A2C8A114A2C8A114A2C1C
:101090008A114A2C8A114A2C8A114A2C8A114A2C0C
:1010A0008A114A2C8A114A2C8A114A2C8A114A2CFC
:1010B0008A114A2C8A114A2C8A114A2C8A114A2CEC
:1010C0008A114A2C8A114A2C8A114A2C8A114A2CDC
:1010D0008A114A2C8A114A2C8A114A2C8A114A2CCC
:1010E0008A114A2C8A114A2C8A114A2C8A114A2CBC
:1010F0008A114A2C8A114A2C8A114A2C8A114A2CAC
:101100008A114A2C8A114A2C8A114A2C8A114A2C9B
:101110008A114A2C8A114A2C8A114A2C8A114A2C8B
:101120008A114A2C8A114A2C8A114A2C8A114A2C7B
:101130008A114A2C8A114A2C8A114A2C8A114A2C6B
:101140008A114A2C8A114A2C8A114A2C8A114A2C5B
:101150008A114A2C8A114A2C8A114A2C8A114A2C4B
:101160008A11DE2B8A114A2C8A114A2C8A114A2CA8
:101170008A114A2C8A114A2C8A114A2C8A114A2C2B
:101180008A114A2C8A114A2C8A114A2C8A11432C22
:101190008A11652C8A114A2C8A114A2C8A114A2CF0
:1011A0008A114A2C8A11652C8A114A2C8A114A2CE0
:1011B0008A114A2C8A114A2C8A114A2C8A11DC2B5A
:1011C0008A114A2C8A114A2C8A114A2C8A114A2CDB
:1011D0008A114A2C8A11502C8A114A2C8A114A2CC5
:0411E0008A11DF2B66
:1012000009308A000408840A82070034013400345B
:1012100008340034403400340034023400341034D4
:1012200000348034013400340A340034643400342F
:10123000E8340334103427340134003410340034DB
:1012400000340134003410340034413477346E34C7
:1012500069346E3467340034573469346E3474340E
:1012600065347234003441346C34613472346D341A
:101270000034443461347934203461346E3464345D
:1012800020344E3469346734683474340034423462
:10129000613463346B346C34693467346834743467
:1012A00000344534783469347434003400345A34AA
:1012B0006F346E3420343A3425343434643420347A
:1012C000253463342534633425346334253463345E
:1012D000253463340034573469346E3464343A341A
:1012E000253434346434203420342034613465347B
:1012F000733477340034303431343234333434346A
:101300003534363437343834393441344234433464
:101310004434453446340034303431343234333498
:101320003434353436343734383439346134623413
:1013300063346434653466340034253434346434BE
:101340003B342534343464343B342534343464340D
:101350000D340A34003443346F346E3466346934E7
:1013600067347534723465340034583400344608B8
:10137000CA004708CB004808CC0003104B0D4C0DA9
:10138000D200D208031DC929C601C701C801C9017D
:1013900008004608CA004708CB004808CC001730B0
:1013A0000310CC0CCB0CCA0CFF3E031DD0294A08FD
:1013B000CD00C717C8014608CE004708CF0048082F
:1013C000D0008E30D101D202D21FF3295208803AC8
:1013D0008F3E031CC4290310D10CD00CCF0CCE0CB3
:1013E000D20FEB29012A183052020318C429D2085F
:1013F0000319012A0310CE0DCF0DD00DD10DD2034C
:10140000F7294D0803190F2ACE09CF09D009D109B0
:10141000CE0A0319CF0A0319D00A0319D10A5108B9
:10142000C9005008C8004F08C7004E08C600080091
:101430000430831203179E009F0103131F08C33952
:1014400008389F009F131F14031799019A013F301A
:1014500083160313850086018701831285018601A7
:1014600087018316811315169516811201128111B9
:101470000115811001108312901210169011101591
:10148000901010143C308F00B0308E001D30920050
:101490003F30831692009A010C30990018119B116D
:1014A000181283129817831698168B170B178B1523
:1014B00016140C148C140C17080064008001840AA4
:1014C00004060319003404065E2A703083168F0464
:0214D000080012
:101AB600831203130108FA000C1F782D0C131E085D
:101AC6008316A400A5010310A40DA50D0310A40DF3
:101AD600A50D1E08F60006300310F60CFF3E031D8A
:101AE6006F2D7608A404A601A60A83128C1CB72DB6
:101AF600851A892D7D080319892D051E862D8316C5
:101B0600AE01AE0A892D8316AF01AF0A00308312EB
:101B1600851A0130FD008519962D8316B008031D20
:101B2600962DB001B00A8312851CA02DE608031D70
:101B3600A02DE601E60AE80AA32D8518A32DE601E5
:101B46008316310833020318AB2D83120715AD2D0A
:101B56008312071183161030B30A33020318B30138
:101B66003F30920083128C100B1DBF2D57268A150D
:101B76000B118B12573081000C1CF12D0C103C30D0
:101B86008F00B0308E006708133A031DDC2D6808FD
:101B9600F0003C30F101F200F3015E268A1571086F
:101BA6008316A3007008A2008312E701E8019F14C0
:101BB600DD2DE70A831632080319E72D31082D06B5
:101BC6000319E72DB10AEE2DB208031DEE2D3108DB
:101BD6000319EE2DB1033208031DB2030B1CF52DBC
:101BE6000130F62D0030F6008B1DFB2D0130FC2D4B
:101BF6000030760503194E2E8312051C4C2E5730E5
:101C060081007B08093A031D0B2EFC01FC0A0F2EEE
:101C16007B08113A0319FC017B0803194B2E7C083B
:101C2600693E840083130310000CF6007C08693EAD
:101C360084007608800096307A02031C262EC13076
:101C46007A02031C3C2E77307A02031C3A2E95301A
:101C56007A0203183A2E7C08693E84000008803810
:101C6600F6007C08693E8400760880003C2E5726E4
:101C76008A157B08183A031D4B2E871D442E8711A3
:101C8600452E87156908EC006A08ED006B08EE0022
:101C9600FB0A0B108B1679088A0078088400770EE9
:101CA6008300FE0E7E0E09000230E901EA01EB0117
:101CB600FB01FC000800F401F501701C682E720897
:101CC600F4070318F50A7308F5070310F20DF30D70
:101CD6000310F10CF00C71087004031D602E7508DA
:101CE600F1007408F00008002808A0002908A100E7
:101CF6008E30A201A300A401C2272008A800210853
:101D0600A9002208AA0008002B08B1002C08B2007E
:101D16002D08B3000310320D330DB400B408031DB3
:101D2600982EAB01AC01AD0108002E08B1002F08BA
:101D3600B2003008B3000310320D330DB900B908F4
:101D4600031DA92EAB01AC01AD01080039087B3E8D
:101D5600B4072D08B9003008B9068030B905073038
:101D6600AC17AF17B001B501B601B701B8002B1C0F
:101D7600CA2E2E08B5072F08031103182F0A031DB4
:101D8600B607300803110318300A031DB7070310FE
:101D9600AD0CAC0CAB0C0310AE0DAF0DB00DB80B0B
:101DA600BA2E0930B8002B1CE62E2E08B5072F08D0
:101DB600031103182F0A031DB60730080311031871
:101DC600300A031DB7070310AD0CAC0CAB0C0310A7
:101DD600B70CB60CB50CB80BD62E3508A0003608D5
:101DE600A1003708A2003408A3003908A400C227BE
:101DF6002008AB002108AC002208AD0008003A0814
:101E0600C0003B08C1003C08C2000310410D420D52
:101E1600C5003D08C0003E08C1003F08C2000310CF
:101E2600410D420DC40045080319252F44084502FB
:101E3600440803182D2FC0004508C002193040027F
:101E4600031C2C2F3D08BA003E08BB003F08BC000F
:101E560008004408031908004508440203183B2FEC
:101E66004508C0004408C0021930400203180800A3
:101E76000630C300BC1BC317BF1B4317BB17BC01EF
:101E8600BE17BF01440845020318622F0310BD0D9B
:101E9600BE0DBF0DC4034408450603195D2FC303D9
:101EA6004308073903195D2F492F0310BC0CBB0CDF
:101EB600BA0CC50A4508440603197E2F582F450853
:101EC600440203187E2F0310BA0DBB0DBC0DC503CB
:101ED6004408450603197A2FC30343080739031933
:101EE6007A2F662F0310BF0CBE0CBD0CC40A450822
:101EF6004406031D752FC31F892FFF30BA06BB0684
:101F0600BC06BA0A0319BB0A0319BC0A431F942F5D
:101F1600FF30BD06BE06BF06BD0A0319BE0A031979
:101F2600BF0AC3013A08BD073B08031103183B0A61
:101F3600031DBE073C08031103183C0A031DBF0717
:101F4600BF1FB02FFF30BD06BE06BF06BD0A031970
:101F5600BE0A0319BF0AC301C30A3D08A0003E0812
:101F6600A1003F08A2004508A3004308A400C22719
:101F76002008BA002108BB002208BC00080023087C
:101F86000319CA2F220821042004031DD32FA00100
:101F9600A101A2010800A30A0310A20CA10CA00C27
:101FA600FE3022050319E22FCE2FA30AA00A031939
:101FB600A10A0319A20A0310A20CA10CA00CFF305F
:101FC60022050319EC2FD82FA3030310A00DA10D92
:101FD600A20DA11FE72F231CA1130310A30C230896
:101FE600A700A601A5012508A0042608A104270824
:0A1FF600A2042408031DA21708002E
:02400E00D4F0EC
:00000001FF
