:040000008A11112828
:10000800FE00030E83120313BC000408BD000A0897
:10001800BE007F08BF008A117A298A1113288A1125
:100028009F238A11D9008A119E23FC00D101D20195
:10003800D301D401D501D601D701D80183018A1192
:10004800922B83120313AF002130F8007808AA001E
:10005800013083120313A007FF30200784008A11A0
:1000680083228A11F8007808B2003208031973292C
:100078002530320603194C283208F8002F0884006E
:100088007808831380000130F8007808AF072C281F
:10009800B001B101AB0155282B150130F8007808E3
:1000A800A007200884008A1183228A11303A031994
:1000B80050285E28200884008A1183228A118A1118
:1000C80084238A11031C9E2883120313B001B101F3
:1000D8000A30F0000030F100831203133108F300F6
:1000E8003008F2008A113D238A1171088312031324
:1000F800B1007008B000200884008A1183228A1198
:10010800D03EF800FF3003180030F9007808B00737
:100118000318B10A7908B1070130F8007808A00778
:10012800200884008A1183228A118A1184238A1163
:1001380003186C28013083120313A007FF3020072F
:1001480084008A1183228A11B200003A03197329A4
:10015800583A0319B328203A0319B3282C288312D4
:1001680003132A08840083130008AC00840A0008DB
:10017800AD000230F8007808AA07B201B20A0430CC
:1001880032060319E4283208F8007807013E840093
:100198008A1183228A11F9008A1183228A11FA00AE
:1001A8007A082D02031DDA2879082C02031CE4289A
:1001B8000130F8007808B20704303206031DC7285A
:1001C8003208F800F901F81BF9037908803AFA00B7
:1001D8003108803A7A02031DF328300878020318A0
:1001E8000329831203133208F800F901F81BF903F5
:1001F8007808B0027908031CB103B10207298312F9
:100208000313B001B1012B1D1F2930083104031954
:1002180038293030F8002F088400780883138000CC
:100228000130F8007808AF07FF30B0070318B10AAB
:10023800FF30B10709293008310403193829203063
:10024800F8002F0884007808831380000130F80034
:100258007808AF07FF30B0070318B10AFF30B107BD
:1002680030083104031D23293208F8007808AE004D
:10027800FF30F8007808AE072E0A03192C282E083C
:10028800F8007807013E84008A1183228A11F00061
:100298008A1183228A11F1002D08F3002C08F2003C
:1002A8008A11C7228A1170080F39F9007908831258
:1002B8000313A90029081D3E84008A1183228A118C
:1002C800F8007808B2003208F8002F08840078088F
:1002D800831380000130F8007808AF073C298312A7
:1002E80003132F0884008313800108000108B3005A
:1002F8003308CC000B1D87290B118B125730810056
:100308008A1175238A110B1C1E2A83120313051CDC
:100318001C2A5730810009305506031D9629D4013F
:10032800D40A9A29113055060319D401550803191E
:10033800122A5408513E840083130008B3000310A6
:10034800330CB4005408513E8400340880009630C1
:100358004C02031CB329C1304C02031CCA29773054
:100368004C02031CC72995304C020318C7295408AE
:10037800513E840000088038B3005408513E840080
:1003880033088000CA298A1175238A11183083120C
:1003980003135506031D122A5108B3003308D6006B
:1003A8005208B3003308D7005308B3003308D80005
:1003B80056308A112B228A11730883120313D00036
:1003C8007208CF007108CE007008CD000930B30064
:1003D8003308A0004D08B400B5013408A100350861
:1003E800A2004E08B600B7013608A3003708A400DB
:1003F8004F08B800B9013808A5003908A600500808
:10040800BA00BB013A08A7003B08A80040308A118F
:1004180025208A1140308A115E238A110130831207
:100428000313B3003308D5075508B3003308D900C0
:100438000B108B16831203133F08FF003E088A0037
:100448003D0884003C0E8300FE0E7E0E0900FB0072
:100458007B08840083130008F40002300310F40CB6
:10046800FF3E031D322A7408F5007508F7007B0A61
:1004780084000008F40002300310F40CFF3E031D52
:10048800402A7B08840000080339F5000530031072
:10049800F50DFF3E031D4B2A0310750D7404F6007D
:1004A8007608F8007B08023E84000008F400023059
:1004B8000310F40CFF3E031D5C2A7B0A840000082D
:1004C8000339F50005300310F50DFF3E031D672ABB
:1004D8000310750D7404F6007608F9007B08023ED7
:1004E800840000080339F4007408FA007A08F3005D
:1004F8007908F2007808F1007708F0000800023067
:100508008A000408840A8207003401340034103455
:10051800003400340134003410342534303432349B
:100528005834253430343234583425343034323465
:1005380058343A3425343034323458340D340A348B
:10054800003430343134323433343434353436349E
:1005580037343834393441344234433444344534FC
:100568004634003425343034323458343B3425345E
:100578003034323458343B342534303432345834FF
:100588000D340A340034F501F601700871040319BA
:10059800FE2AF701F70AF11BDD2A01300310F00DDE
:1005A800F10DFF3E031DD22A0130F4007408F7074D
:1005B800CF2A01300310F50DF60DFF3E031DDE2A8C
:1005C80071087302031DEA2A70087202031CF32AD9
:1005D8007008F2027108031CF303F302751401306A
:1005E8000310F10CF00CFF3E031DF42A0130F70252
:1005F800031DDD2A7608F1007508F00008000430B4
:10060800831203179E009F01831203131F08C33927
:1006180008389F009F131F108312031799019A012E
:100628003F30831603138500860187018312031365
:100638008501860187018316031381178112011230
:1006480081110115811001109A010C3099001811BF
:100658009B11181283120313981783160313981605
:100668008B170B178B150B1016140C108C100C1302
:100678000800F401F501701C472B7208F4070318F1
:10068800F50A7308F50701300310F20DF30DFF3E6C
:10069800031D482B01300310F10CF00CFF3E031D25
:1006A8004F2B70087104031D3F2B7508F100740867
:1006B800F0000800F1007108840083130008031992
:1006C800080071088400831300088312031399003B
:1006D80083160313981C6C2B0130F0007008F10787
:1006E8005F2B83120313D101D201D301D50102304C
:1006F800F0007008D4005508F0007008D900080010
:10070800F100F0013A3071020318902B3030710279
:10071800031C902BF001F00A700C08008A11992331
:100728008A118A1103238A11982B703083160313B8
:080738008F0408003034303456
:02400E00D4F0EC
:00000001FF
